:0300000002019B5F
:0C019B00787FE4F6D8FD7581200201E2B7
:09035200439118759204D2932224
:02035B00C100DF
:03003800AF9F2255
:0E002A00E50830E706E4F5087F01227F00229A
:1002C9001200388F0BE50854807039E50830E609CB
:1002D900EF640A702C75088022E50B640D700443E5
:1002E900084022740C2508F8A60B0508AF0CEF642A
:1002F900016003E4F508D3E508940774809480400D
:0503090003E4F50822E9
:10028000120352E4751A80751925F518F5177F0CBD
:10029000FE12022712002AEF60FAAF0EEFFEAD0F3A
:1002A000ED8E09F50A7E007F077D007B007A0079DC
:1002B0000C1200A1E50970DCE50A24FE6007047059
:0902C000D3D29480CFC29480CB0C
:03003B00020003BD
:10000300C0E0C0D075D000C000C0071202C9E59D92
:1000130030E103539DFDE59D30E003539DFED00782
:07002300D000D0D0D0E03284
:100227008E158F16758FC0759D5FAE15AF16EE33A1
:1002370095E0FDFC7B407A42790F780012003EABD7
:100247001AAA19A918A81712030E8F9EAE15AF1672
:10025700EE3395E0FDFC7B407A42790F780012007F
:100267003EAB1AAA19A918A81712030E780812008C
:090277008D8F9575A901D2AF220B
:1001A700020280E493A3F8E493A34003F68001F2EC
:1001B70008DFF48029E493A3F85407240CC8C33359
:1001C700C4540F4420C8834004F456800146F6DF28
:1001D700E4800B010204081020408090035BE47E5A
:1001E700019360BCA3FF543F30E509541FFEE4931D
:1001F700A360010ECF54C025E060A840B8E493A3E4
:10020700FAE493A3F8E493A3C8C582C8CAC583CA0E
:10021700F0A3C8C582C8CAC583CADFE9DEE780BEC6
:01035D00009F
:10003E00E88FF0A4CC8BF0A42CFCE98EF0A42CFC61
:10004E008AF0EDA42CFCEA8EF0A4CDA8F08BF0A4DF
:10005E002DCC3825F0FDE98FF0A42CCD35F0FCEB3E
:10006E008EF0A4FEA9F0EB8FF0A4CFC5F02ECD3903
:0F007E00FEE43CFCEAA42DCE35F0FDE43CFC2270
:10030E00C2D5E830E70FB2D5E4C39BFBE49AFAE41A
:10031E0099F9E498F8EC30E717B2D51203441201BC
:10032E0009E4C39BFBE49AFAE499F9E498F8800394
:10033E0012010930D50DE4C39FFFE49EFEE49DFD3E
:04034E00E49CFC220D
:10008D00E86010ECA2E713FCED13FDEE13FEEF1389
:04009D00FFD8F02276
:1000A100EF4E6012EF60010EEDBB010B89828A8376
:1000B100F0A3DFFCDEFA2289F05007F709DFFCA983
:0C00C100F022BBFEFCF309DFFCA9F022DA
:1000CD0075F008758200EF2FFFEE33FECD33CDCCEA
:1000DD0033CCC58233C5829BED9AEC99E58298406D
:1000ED000CF582EE9BFEED9AFDEC99FC0FD5F0D64A
:1000FD00E4CEFBE4CDFAE4CCF9A88222B800C1B974
:10010D000059BA002DEC8BF084CFCECDFCE5F0CBB1
:10011D00F97818EF2FFFEE33FEED33FDEC33FCEBEA
:10012D0033FB10D703994004EB99FB0FD8E5E4F9A5
:10013D00FA227818EF2FFFEE33FEED33FDEC33FC92
:10014D00C933C910D7059BE99A4007EC9BFCE99A86
:10015D00F90FD8E0E4C9FAE4CCFB2275F010EF2FCB
:10016D00FFEE33FEED33FDCC33CCC833C810D707CB
:10017D009BEC9AE899400AED9BFDEC9AFCE899F806
:0E018D000FD5F0DAE4CDFBE4CCFAE4C8F92299
:00000001FF
