:030000000201DE1C
:0C01DE00787FE4F6D8FD75812002022530
:09039F007591FFE4F592D293225E
:0203B000C1008A
:0803A8008F9F3000FDC200220E
:060003008B138A1489151D
:10000900E4FEEEFD3395E0FCC3ED9407EC648094C7
:10001900805018AB13AA14A915EE3395E08D82F51B
:0F0029008312003EFF1203A80E80D77E007F01D6
:0100380022A5
:08034A008F088D098A0A8B0B54
:100352007E007F077D007B007A00790C1200E48525
:10036200080D85090CE50AF50EE50BF50FE50D25DF
:100372000C250E250FF51075110D75120A7B007AEA
:0603820000790C020003EB
:1003070012039FE4750D80750C25F50BF50A7F0C1C
:10031700FE12026AE4F516F517AE16AF17E4FCFDF8
:100327007B607AEAF9F8D31200BA400A0517E51795
:1003370070E7051680E37B017A007D027F011203D7
:030347004A80D118
:03003B0002038835
:10038800C0E0E59D30E103539DFDE59D30E003535A
:070398009DFED200D0E0320F
:10026A008E088F09758FC0759D50AE08AF09EE33A1
:10027A0095E0FDFC7B407A42790F780012006BAB67
:10028A000DAA0CA90BA80A1202C38F9EAE08AF09C9
:10029A00EE3395E0FDFC7B407A42790F780012003C
:1002AA006BAB0DAA0CA90BA80A1202C3780812009C
:0902BA00D08F9575A901D2AF2285
:1001EA00020307E493A3F8E493A34003F68001F221
:1001FA0008DFF48029E493A3F85407240CC8C33316
:10020A00C4540F4420C8834004F456800146F6DFE4
:10021A00E4800B01020408102040809003B0E47EC1
:10022A00019360BCA3FF543F30E509541FFEE493D9
:10023A00A360010ECF54C025E060A840B8E493A3A0
:10024A00FAE493A3F8E493A3C8C582C8CAC583CACB
:10025A00F0A3C8C582C8CAC583CADFE9DEE780BE83
:0103B200004A
:10003E00BB010CE58229F582E5833AF583E0225077
:10004E0006E92582F8E622BBFE06E92582F8E222C1
:0D005E00E58229F582E5833AF583E49322DB
:10006B00E88FF0A4CC8BF0A42CFCE98EF0A42CFC34
:10007B008AF0EDA42CFCEA8EF0A4CDA8F08BF0A4B2
:10008B002DCC3825F0FDE98FF0A42CCD35F0FCEB11
:10009B008EF0A4FEA9F0EB8FF0A4CFC5F02ECD39D6
:0F00AB00FEE43CFCEAA42DCE35F0FDE43CFC2243
:1002C300C2D5E830E70FB2D5E4C39BFBE49AFAE466
:1002D30099F9E498F8EC30E717B2D51202F9120154
:1002E3004CE4C39BFBE49AFAE499F9E498F880039D
:1002F30012014C30D50DE4C39FFFE49EFEE49DFD47
:04030300E49CFC2258
:1000BA00EB9FF5F0EA9E42F0E99D42F0EC6480C8BD
:0600CA0064809845F0225D
:1000D000E86010ECA2E713FCED13FDEE13FEEF1346
:0400E000FFD8F02233
:1000E400EF4E6012EF60010EEDBB010B89828A8333
:1000F400F0A3DFFCDEFA2289F05007F709DFFCA940
:0C010400F022BBFEFCF309DFFCA9F02296
:1001100075F008758200EF2FFFEE33FECD33CDCCA6
:1001200033CCC58233C5829BED9AEC99E582984029
:100130000CF582EE9BFEED9AFDEC99FC0FD5F0D606
:10014000E4CEFBE4CDFAE4CCF9A88222B800C1B930
:100150000059BA002DEC8BF084CFCECDFCE5F0CB6E
:10016000F97818EF2FFFEE33FEED33FDEC33FCEBA7
:1001700033FB10D703994004EB99FB0FD8E5E4F962
:10018000FA227818EF2FFFEE33FEED33FDEC33FC4F
:10019000C933C910D7059BE99A4007EC9BFCE99A43
:1001A000F90FD8E0E4C9FAE4CCFB2275F010EF2F88
:1001B000FFEE33FEED33FDCC33CCC833C810D70788
:1001C0009BEC9AE899400AED9BFDEC9AFCE899F8C3
:0E01D0000FD5F0DAE4CDFBE4CCFAE4C8F92256
:00000001FF
